:060000000A128A11142906
:100200008A010A140F3982073F3406345B344F34B5
:1002100066346D347D3407347F34673477347C340E
:1002200039345E3479347134212137213E2103136E
:1002300083120B197221051C6421851C6B21562128
:1002400019290317831688018901031383160330C4
:100250008500F03088008701F03086000910031314
:100260008312880187018601890181000800031338
:1002700083160F140F178F120F160800031383161F
:1002800081128111011581140114031383123D3071
:1002900081000B110800031383123D3081000B1104
:1002A000A10A0A30210203196121080020080F3930
:1002B000A200A20306080F39A206A20B0800090A31
:1002C0000800860AA1010800051C6429A00A20086C
:1002D000002187000800851C6B29A003200800214D
:0A02E000870008004B21880A08007F
:04400E00C420FF3F8C
:00000001FF
